{
  "_format": "hh-sol-artifact-1",
  "contractName": "CurrencyConverter",
  "sourceName": "contracts/currencyConverter.sol",
  "abi": [
    {
      "inputs": [
        {
          "internalType": "address",
          "name": "aggregatorAddress",
          "type": "address"
        }
      ],
      "name": "getLatestPrice",
      "outputs": [
        {
          "internalType": "int256",
          "name": "",
          "type": "int256"
        }
      ],
      "stateMutability": "view",
      "type": "function"
    }
  ],
  "bytecode": "0x608060405234801561001057600080fd5b50610302806100206000396000f3fe608060405234801561001057600080fd5b506004361061002b5760003560e01c806316345f1814610030575b600080fd5b61004a6004803603810190610045919061014a565b610060565b60405161005791906101f9565b60405180910390f35b60008082905060008173ffffffffffffffffffffffffffffffffffffffff1663feaf968c6040518163ffffffff1660e01b815260040160a06040518083038186803b1580156100ae57600080fd5b505afa1580156100c2573d6000803e3d6000fd5b505050506040513d601f19601f820116820180604052508101906100e69190610173565b5050509150508092505050919050565b60008135905061010581610270565b92915050565b60008151905061011a81610287565b92915050565b60008151905061012f8161029e565b92915050565b600081519050610144816102b5565b92915050565b60006020828403121561015c57600080fd5b600061016a848285016100f6565b91505092915050565b600080600080600060a0868803121561018b57600080fd5b600061019988828901610135565b95505060206101aa8882890161010b565b94505060406101bb88828901610120565b93505060606101cc88828901610120565b92505060806101dd88828901610135565b9150509295509295909350565b6101f381610226565b82525050565b600060208201905061020e60008301846101ea565b92915050565b600061021f82610230565b9050919050565b6000819050919050565b600073ffffffffffffffffffffffffffffffffffffffff82169050919050565b6000819050919050565b600069ffffffffffffffffffff82169050919050565b61027981610214565b811461028457600080fd5b50565b61029081610226565b811461029b57600080fd5b50565b6102a781610250565b81146102b257600080fd5b50565b6102be8161025a565b81146102c957600080fd5b5056fea2646970667358221220b2fbc3e52e0e913154617e8ce91d6dd28a0e54381326615abfd8b79437da205964736f6c63430008030033",
  "linkReferences": {},
  "deployedLinkReferences": {}
}